{
  "contractName": "calc",
  "abi": [
    {
      "inputs": [],
      "name": "show",
      "outputs": [
        {
          "internalType": "uint256",
          "name": "",
          "type": "uint256"
        }
      ],
      "stateMutability": "view",
      "type": "function",
      "constant": true
    },
    {
      "inputs": [],
      "name": "get",
      "outputs": [
        {
          "internalType": "uint256",
          "name": "",
          "type": "uint256"
        }
      ],
      "stateMutability": "view",
      "type": "function",
      "constant": true
    }
  ],
  "bytecode": "0x6080604052600a600055601460015534801561001a57600080fd5b5060e4806100296000396000f3fe6080604052348015600f57600080fd5b506004361060325760003560e01c80636d4ce63c146037578063cc80f6f3146051575b600080fd5b603d606b565b604051604891906095565b60405180910390f35b60576075565b604051606291906095565b60405180910390f35b6000600154905090565b60008054905090565b6000819050919050565b608f81607e565b82525050565b600060208201905060a860008301846088565b9291505056fea2646970667358221220bec19dfa480960e112e0c5a2841981568a5544716327e8d5a9f38eb7039cb05a64736f6c63430008110033",
  "immutableReferences": {},
  "source": "// SPDX-License-Identifier: MIT\npragma solidity >=0.4.22 <0.9.0;\n\ncontract calc{\nuint a= 10;\nuint b=20;\n\nfunction show() public view returns(uint){\n    return a;\n}\n\nfunction get() public view  returns(uint){\n    return b;\n}\n\n}",
  "sourcePath": "/Users/upendra/Desktop/Developer/blockchain/practice/randomBasicProjects/basicclaculator2/calc/contracts/calc.sol",
  "compiler": {
    "name": "solc",
    "version": "0.8.17+commit.8df45f5f.Emscripten.clang"
  },
  "schemaVersion": "3.4.10",
  "updatedAt": "2023-09-18T14:37:42.299Z",
  "networkType": "ethereum",
  "devdoc": {
    "kind": "dev",
    "methods": {},
    "version": 1
  },
  "userdoc": {
    "kind": "user",
    "methods": {},
    "version": 1
  }
}