{
  "contractName": "TreePlantingContract",
  "abi": [
    {
      "inputs": [],
      "stateMutability": "nonpayable",
      "type": "constructor"
    },
    {
      "anonymous": false,
      "inputs": [
        {
          "indexed": true,
          "internalType": "uint256",
          "name": "eventId",
          "type": "uint256"
        },
        {
          "indexed": true,
          "internalType": "address",
          "name": "planter",
          "type": "address"
        }
      ],
      "name": "TreePlantingEventAdded",
      "type": "event"
    },
    {
      "inputs": [
        {
          "internalType": "uint256",
          "name": "",
          "type": "uint256"
        }
      ],
      "name": "events",
      "outputs": [
        {
          "internalType": "uint256",
          "name": "eventId",
          "type": "uint256"
        },
        {
          "internalType": "address",
          "name": "planter",
          "type": "address"
        },
        {
          "internalType": "string",
          "name": "locationLatitude",
          "type": "string"
        },
        {
          "internalType": "string",
          "name": "locationLongitude",
          "type": "string"
        },
        {
          "internalType": "string",
          "name": "treeSpecies",
          "type": "string"
        },
        {
          "internalType": "uint256",
          "name": "plantingDate",
          "type": "uint256"
        },
        {
          "internalType": "bool",
          "name": "verified",
          "type": "bool"
        }
      ],
      "stateMutability": "view",
      "type": "function",
      "constant": true
    },
    {
      "inputs": [],
      "name": "owner",
      "outputs": [
        {
          "internalType": "address",
          "name": "",
          "type": "address"
        }
      ],
      "stateMutability": "view",
      "type": "function",
      "constant": true
    },
    {
      "inputs": [
        {
          "internalType": "string",
          "name": "_locationLatitude",
          "type": "string"
        },
        {
          "internalType": "string",
          "name": "_locationLongitude",
          "type": "string"
        },
        {
          "internalType": "string",
          "name": "_treeSpecies",
          "type": "string"
        },
        {
          "internalType": "uint256",
          "name": "_plantingDate",
          "type": "uint256"
        }
      ],
      "name": "addTreePlantingEvent",
      "outputs": [],
      "stateMutability": "payable",
      "type": "function",
      "payable": true
    },
    {
      "inputs": [
        {
          "internalType": "uint256",
          "name": "_eventId",
          "type": "uint256"
        }
      ],
      "name": "verifyTreePlantingEvent",
      "outputs": [],
      "stateMutability": "nonpayable",
      "type": "function"
    }
  ],
  "bytecode": "0x608060405234801561001057600080fd5b50600280546001600160a01b031916331790556108ca806100326000396000f3fe60806040526004361061003f5760003560e01c80630b791430146100445780634588f13f146100805780636a8edac6146100955780638da5cb5b146100b5575b600080fd5b34801561005057600080fd5b5061006461005f366004610526565b6100ed565b6040516100779796959493929190610585565b60405180910390f35b61009361008e366004610694565b6102ce565b005b3480156100a157600080fd5b506100936100b0366004610526565b6103e4565b3480156100c157600080fd5b506002546100d5906001600160a01b031681565b6040516001600160a01b039091168152602001610077565b60006020819052908152604090208054600182015460028301805492936001600160a01b039092169261011f90610724565b80601f016020809104026020016040519081016040528092919081815260200182805461014b90610724565b80156101985780601f1061016d57610100808354040283529160200191610198565b820191906000526020600020905b81548152906001019060200180831161017b57829003601f168201915b5050505050908060030180546101ad90610724565b80601f01602080910402602001604051908101604052809291908181526020018280546101d990610724565b80156102265780601f106101fb57610100808354040283529160200191610226565b820191906000526020600020905b81548152906001019060200180831161020957829003601f168201915b50505050509080600401805461023b90610724565b80601f016020809104026020016040519081016040528092919081815260200182805461026790610724565b80156102b45780601f10610289576101008083540402835291602001916102b4565b820191906000526020600020905b81548152906001019060200180831161029757829003601f168201915b50505050600583015460069093015491929160ff16905087565b600084511180156102e0575060008351115b6103315760405162461bcd60e51b815260206004820152601960248201527f4c6f636174696f6e20646174612069732072657175697265640000000000000060448201526064015b60405180910390fd5b600180549060006103418361075e565b909155505060018054600081815260208190526040902090815590810180546001600160a01b031916331790556002810161037c86826107d4565b506003810161038b85826107d4565b506004810161039a84826107d4565b506005810182905560068101805460ff191690556001546040513391907f415bc96cb339a9e3e6508553f48a628f4ea6f2c0a7898772f93d692384b70f6c90600090a35050505050565b6002546001600160a01b031633146104555760405162461bcd60e51b815260206004820152602e60248201527f4f6e6c792074686520636f6e7472616374206f776e65722063616e2063616c6c60448201526d103a3434b990333ab731ba34b7b760911b6064820152608401610328565b60015481111580156104675750600081115b6104a65760405162461bcd60e51b815260206004820152601060248201526f125b9d985b1a5908195d995b9d08125160821b6044820152606401610328565b60008181526020819052604090206006015460ff16156105085760405162461bcd60e51b815260206004820152601960248201527f4576656e7420697320616c7265616479207665726966696564000000000000006044820152606401610328565b6000908152602081905260409020600601805460ff19166001179055565b60006020828403121561053857600080fd5b5035919050565b6000815180845260005b8181101561056557602081850181015186830182015201610549565b506000602082860101526020601f19601f83011685010191505092915050565b8781526001600160a01b038716602082015260e0604082018190526000906105af9083018861053f565b82810360608401526105c1818861053f565b905082810360808401526105d5818761053f565b60a0840195909552505090151560c09091015295945050505050565b634e487b7160e01b600052604160045260246000fd5b600082601f83011261061857600080fd5b813567ffffffffffffffff80821115610633576106336105f1565b604051601f8301601f19908116603f0116810190828211818310171561065b5761065b6105f1565b8160405283815286602085880101111561067457600080fd5b836020870160208301376000602085830101528094505050505092915050565b600080600080608085870312156106aa57600080fd5b843567ffffffffffffffff808211156106c257600080fd5b6106ce88838901610607565b955060208701359150808211156106e457600080fd5b6106f088838901610607565b9450604087013591508082111561070657600080fd5b5061071387828801610607565b949793965093946060013593505050565b600181811c9082168061073857607f821691505b60208210810361075857634e487b7160e01b600052602260045260246000fd5b50919050565b60006001820161077e57634e487b7160e01b600052601160045260246000fd5b5060010190565b601f8211156107cf57600081815260208120601f850160051c810160208610156107ac5750805b601f850160051c820191505b818110156107cb578281556001016107b8565b5050505b505050565b815167ffffffffffffffff8111156107ee576107ee6105f1565b610802816107fc8454610724565b84610785565b602080601f831160018114610837576000841561081f5750858301515b600019600386901b1c1916600185901b1785556107cb565b600085815260208120601f198616915b8281101561086657888601518255948401946001909101908401610847565b50858210156108845787850151600019600388901b60f8161c191681555b5050505050600190811b0190555056fea26469706673582212207944194a7a2fa5019a91d051fa9d283c2a13c68086db95b92a2fadbd46fade1764736f6c63430008130033",
  "immutableReferences": {},
  "source": "// SPDX-License-Identifier: MIT\npragma solidity ^0.8.0;\n\ncontract TreePlantingContract {\n    // Structure to represent a tree planting event\n    struct TreePlantingEvent {\n        uint256 eventId;\n        address planter;\n        string locationLatitude;\n        string locationLongitude;\n        string treeSpecies;\n        uint256 plantingDate;\n        bool verified;\n    }\n\n    // Mapping to store all tree planting events\n    mapping(uint256 => TreePlantingEvent) public events;\n\n    // Counter for generating unique event IDs\n    uint256 private eventIdCounter;\n\n    // Event emitted when a new tree planting event is added\n    event TreePlantingEventAdded(uint256 indexed eventId, address indexed planter);\n\n    // Modifier to restrict access to certain functions\n    modifier onlyOwner() {\n        require(msg.sender == owner, \"Only the contract owner can call this function\");\n        _;\n    }\n\n    // Contract owner\n    address public owner;\n\n    // Constructor to set the contract owner\n    constructor() {\n        owner = msg.sender;\n    }\n\n    // Function to add a new tree planting event\n    function addTreePlantingEvent(\n        string memory _locationLatitude,\n        string memory _locationLongitude,\n        string memory _treeSpecies,\n        uint256 _plantingDate\n    ) external payable {\n        require(bytes(_locationLatitude).length > 0 && bytes(_locationLongitude).length > 0, \"Location data is required\");\n\n        // Generate a new event ID\n        eventIdCounter++;\n\n        // Create a new tree planting event\n        TreePlantingEvent storage newEvent = events[eventIdCounter];\n        newEvent.eventId = eventIdCounter;\n        newEvent.planter = msg.sender;\n        newEvent.locationLatitude = _locationLatitude;\n        newEvent.locationLongitude = _locationLongitude;\n        newEvent.treeSpecies = _treeSpecies;\n        newEvent.plantingDate = _plantingDate;\n        newEvent.verified = false;\n\n        // Emit an event to log the addition of the new event\n        emit TreePlantingEventAdded(eventIdCounter, msg.sender);\n    }\n\n    // Function to verify a tree planting event\n    function verifyTreePlantingEvent(uint256 _eventId) external onlyOwner {\n        require(_eventId <= eventIdCounter && _eventId > 0, \"Invalid event ID\");\n        require(events[_eventId].verified == false, \"Event is already verified\");\n\n        events[_eventId].verified = true;\n    }\n}\n",
  "sourcePath": "/Users/upendra/Desktop/Developer/blockchain/practice/randomBasicProjects/basicclaculator2/calc/contracts/TreePlantingContract.sol",
  "compiler": {
    "name": "solc",
    "version": "0.8.19+commit.7dd6d404.Emscripten.clang"
  },
  "schemaVersion": "3.4.10",
  "updatedAt": "2023-09-22T18:39:43.096Z",
  "networkType": "ethereum",
  "devdoc": {
    "kind": "dev",
    "methods": {},
    "version": 1
  },
  "userdoc": {
    "kind": "user",
    "methods": {},
    "version": 1
  }
}